{
  "address": "0xdC851D5925D667EE00300B447eE13AfC1f4aD351",
  "abi": [
    {
      "inputs": [],
      "stateMutability": "nonpayable",
      "type": "constructor"
    },
    {
      "anonymous": false,
      "inputs": [
        {
          "indexed": true,
          "internalType": "address",
          "name": "owner",
          "type": "address"
        },
        {
          "indexed": true,
          "internalType": "address",
          "name": "approved",
          "type": "address"
        },
        {
          "indexed": true,
          "internalType": "uint256",
          "name": "tokenId",
          "type": "uint256"
        }
      ],
      "name": "Approval",
      "type": "event"
    },
    {
      "anonymous": false,
      "inputs": [
        {
          "indexed": true,
          "internalType": "address",
          "name": "owner",
          "type": "address"
        },
        {
          "indexed": true,
          "internalType": "address",
          "name": "operator",
          "type": "address"
        },
        {
          "indexed": false,
          "internalType": "bool",
          "name": "approved",
          "type": "bool"
        }
      ],
      "name": "ApprovalForAll",
      "type": "event"
    },
    {
      "anonymous": false,
      "inputs": [
        {
          "indexed": true,
          "internalType": "address",
          "name": "previousOwner",
          "type": "address"
        },
        {
          "indexed": true,
          "internalType": "address",
          "name": "newOwner",
          "type": "address"
        }
      ],
      "name": "OwnershipTransferred",
      "type": "event"
    },
    {
      "anonymous": false,
      "inputs": [
        {
          "indexed": true,
          "internalType": "address",
          "name": "from",
          "type": "address"
        },
        {
          "indexed": true,
          "internalType": "address",
          "name": "to",
          "type": "address"
        },
        {
          "indexed": true,
          "internalType": "uint256",
          "name": "tokenId",
          "type": "uint256"
        }
      ],
      "name": "Transfer",
      "type": "event"
    },
    {
      "inputs": [
        {
          "internalType": "address",
          "name": "to",
          "type": "address"
        },
        {
          "internalType": "uint256",
          "name": "tokenId",
          "type": "uint256"
        }
      ],
      "name": "approve",
      "outputs": [],
      "stateMutability": "nonpayable",
      "type": "function"
    },
    {
      "inputs": [
        {
          "internalType": "address",
          "name": "owner",
          "type": "address"
        }
      ],
      "name": "balanceOf",
      "outputs": [
        {
          "internalType": "uint256",
          "name": "",
          "type": "uint256"
        }
      ],
      "stateMutability": "view",
      "type": "function"
    },
    {
      "inputs": [
        {
          "internalType": "uint256",
          "name": "tokenId",
          "type": "uint256"
        }
      ],
      "name": "getApproved",
      "outputs": [
        {
          "internalType": "address",
          "name": "",
          "type": "address"
        }
      ],
      "stateMutability": "view",
      "type": "function"
    },
    {
      "inputs": [
        {
          "internalType": "address",
          "name": "_owner",
          "type": "address"
        },
        {
          "internalType": "address",
          "name": "_operator",
          "type": "address"
        }
      ],
      "name": "isApprovedForAll",
      "outputs": [
        {
          "internalType": "bool",
          "name": "isOperator",
          "type": "bool"
        }
      ],
      "stateMutability": "view",
      "type": "function"
    },
    {
      "inputs": [
        {
          "internalType": "address",
          "name": "_to",
          "type": "address"
        }
      ],
      "name": "mintTo",
      "outputs": [],
      "stateMutability": "nonpayable",
      "type": "function"
    },
    {
      "inputs": [],
      "name": "name",
      "outputs": [
        {
          "internalType": "string",
          "name": "",
          "type": "string"
        }
      ],
      "stateMutability": "view",
      "type": "function"
    },
    {
      "inputs": [],
      "name": "owner",
      "outputs": [
        {
          "internalType": "address",
          "name": "",
          "type": "address"
        }
      ],
      "stateMutability": "view",
      "type": "function"
    },
    {
      "inputs": [
        {
          "internalType": "uint256",
          "name": "tokenId",
          "type": "uint256"
        }
      ],
      "name": "ownerOf",
      "outputs": [
        {
          "internalType": "address",
          "name": "",
          "type": "address"
        }
      ],
      "stateMutability": "view",
      "type": "function"
    },
    {
      "inputs": [],
      "name": "renounceOwnership",
      "outputs": [],
      "stateMutability": "nonpayable",
      "type": "function"
    },
    {
      "inputs": [
        {
          "internalType": "address",
          "name": "from",
          "type": "address"
        },
        {
          "internalType": "address",
          "name": "to",
          "type": "address"
        },
        {
          "internalType": "uint256",
          "name": "tokenId",
          "type": "uint256"
        }
      ],
      "name": "safeTransferFrom",
      "outputs": [],
      "stateMutability": "nonpayable",
      "type": "function"
    },
    {
      "inputs": [
        {
          "internalType": "address",
          "name": "from",
          "type": "address"
        },
        {
          "internalType": "address",
          "name": "to",
          "type": "address"
        },
        {
          "internalType": "uint256",
          "name": "tokenId",
          "type": "uint256"
        },
        {
          "internalType": "bytes",
          "name": "_data",
          "type": "bytes"
        }
      ],
      "name": "safeTransferFrom",
      "outputs": [],
      "stateMutability": "nonpayable",
      "type": "function"
    },
    {
      "inputs": [
        {
          "internalType": "address",
          "name": "operator",
          "type": "address"
        },
        {
          "internalType": "bool",
          "name": "approved",
          "type": "bool"
        }
      ],
      "name": "setApprovalForAll",
      "outputs": [],
      "stateMutability": "nonpayable",
      "type": "function"
    },
    {
      "inputs": [
        {
          "internalType": "bytes4",
          "name": "interfaceId",
          "type": "bytes4"
        }
      ],
      "name": "supportsInterface",
      "outputs": [
        {
          "internalType": "bool",
          "name": "",
          "type": "bool"
        }
      ],
      "stateMutability": "view",
      "type": "function"
    },
    {
      "inputs": [],
      "name": "symbol",
      "outputs": [
        {
          "internalType": "string",
          "name": "",
          "type": "string"
        }
      ],
      "stateMutability": "view",
      "type": "function"
    },
    {
      "inputs": [
        {
          "internalType": "uint256",
          "name": "tokenId",
          "type": "uint256"
        }
      ],
      "name": "tokenURI",
      "outputs": [
        {
          "internalType": "string",
          "name": "",
          "type": "string"
        }
      ],
      "stateMutability": "view",
      "type": "function"
    },
    {
      "inputs": [
        {
          "internalType": "address",
          "name": "from",
          "type": "address"
        },
        {
          "internalType": "address",
          "name": "to",
          "type": "address"
        },
        {
          "internalType": "uint256",
          "name": "tokenId",
          "type": "uint256"
        }
      ],
      "name": "transferFrom",
      "outputs": [],
      "stateMutability": "nonpayable",
      "type": "function"
    },
    {
      "inputs": [
        {
          "internalType": "address",
          "name": "newOwner",
          "type": "address"
        }
      ],
      "name": "transferOwnership",
      "outputs": [],
      "stateMutability": "nonpayable",
      "type": "function"
    }
  ],
  "transactionHash": "0xd60c9d87b052f6db568fdcbc39f741ab14c6febe724e18ed270f8b0bbbf42a98",
  "args": [],
  "solcInputHash": "0e5c57869f2f4ea73399df6fd8c00964",
  "bytecode": "0x6002600755600060085560e06040526022608081815290620017d760a0398051620000339160099160209091019062000179565b5060405180604001604052806040518060600160405280602e815260200162001827602e913981526020016040518060600160405280602e8152602001620017f9602e913990526200008a90600a90600262000208565b503480156200009857600080fd5b50604080518082018252600e81526d2ab63a34b6b0ba32abb2b0b837b760911b60208083019182528351808501909452600384526205557560ec1b908401528151919291620000ea9160009162000179565b5080516200010090600190602084019062000179565b5050506200011d620001176200012360201b60201c565b62000127565b6200031f565b3390565b600680546001600160a01b038381166001600160a01b0319831681179093556040519116919082907f8be0079c531659141344cd1fd0a4f28419497f9722a3daafe3b4186f6b6457e090600090a35050565b8280546200018790620002e2565b90600052602060002090601f016020900481019282620001ab5760008555620001f6565b82601f10620001c657805160ff1916838001178555620001f6565b82800160010185558215620001f6579182015b82811115620001f6578251825591602001919060010190620001d9565b506200020492915062000268565b5090565b8280548282559060005260206000209081019282156200025a579160200282015b828111156200025a57825180516200024991849160209091019062000179565b509160200191906001019062000229565b50620002049291506200027f565b5b8082111562000204576000815560010162000269565b8082111562000204576000620002968282620002a0565b506001016200027f565b508054620002ae90620002e2565b6000825580601f10620002bf575050565b601f016020900490600052602060002090810190620002df919062000268565b50565b600181811c90821680620002f757607f821691505b602082108114156200031957634e487b7160e01b600052602260045260246000fd5b50919050565b6114a8806200032f6000396000f3fe608060405234801561001057600080fd5b506004361061010b5760003560e01c8063715018a6116100a2578063a22cb46511610071578063a22cb4651461021b578063b88d4fde1461022e578063c87b56dd14610241578063e985e9c514610254578063f2fde38b1461026757600080fd5b8063715018a6146101e7578063755edd17146101ef5780638da5cb5b1461020257806395d89b411461021357600080fd5b806323b872dd116100de57806323b872dd1461018d57806342842e0e146101a05780636352211e146101b357806370a08231146101c657600080fd5b806301ffc9a71461011057806306fdde0314610138578063081812fc1461014d578063095ea7b314610178575b600080fd5b61012361011e366004610f4c565b61027a565b60405190151581526020015b60405180910390f35b6101406102cc565b60405161012f9190610fb6565b61016061015b366004610fc9565b61035e565b6040516001600160a01b03909116815260200161012f565b61018b610186366004610ffe565b6103f8565b005b61018b61019b366004611028565b61050e565b61018b6101ae366004611028565b61053f565b6101606101c1366004610fc9565b61055a565b6101d96101d4366004611064565b6105d1565b60405190815260200161012f565b61018b610658565b61018b6101fd366004611064565b61068e565b6006546001600160a01b0316610160565b61014061071a565b61018b61022936600461107f565b610729565b61018b61023c3660046110d1565b6107ee565b61014061024f366004610fc9565b610826565b6101236102623660046111ad565b61086e565b61018b610275366004611064565b6108ce565b60006001600160e01b031982166380ac58cd60e01b14806102ab57506001600160e01b03198216635b5e139f60e01b145b806102c657506301ffc9a760e01b6001600160e01b03198316145b92915050565b6060600080546102db906111e0565b80601f0160208091040260200160405190810160405280929190818152602001828054610307906111e0565b80156103545780601f1061032957610100808354040283529160200191610354565b820191906000526020600020905b81548152906001019060200180831161033757829003601f168201915b5050505050905090565b6000818152600260205260408120546001600160a01b03166103dc5760405162461bcd60e51b815260206004820152602c60248201527f4552433732313a20617070726f76656420717565727920666f72206e6f6e657860448201526b34b9ba32b73a103a37b5b2b760a11b60648201526084015b60405180910390fd5b506000908152600460205260409020546001600160a01b031690565b60006104038261055a565b9050806001600160a01b0316836001600160a01b031614156104715760405162461bcd60e51b815260206004820152602160248201527f4552433732313a20617070726f76616c20746f2063757272656e74206f776e656044820152603960f91b60648201526084016103d3565b336001600160a01b038216148061048d575061048d813361086e565b6104ff5760405162461bcd60e51b815260206004820152603860248201527f4552433732313a20617070726f76652063616c6c6572206973206e6f74206f7760448201527f6e6572206e6f7220617070726f76656420666f7220616c6c000000000000000060648201526084016103d3565b6105098383610966565b505050565b61051833826109d4565b6105345760405162461bcd60e51b81526004016103d39061121b565b610509838383610aab565b610509838383604051806020016040528060008152506107ee565b6000818152600260205260408120546001600160a01b0316806102c65760405162461bcd60e51b815260206004820152602960248201527f4552433732313a206f776e657220717565727920666f72206e6f6e657869737460448201526832b73a103a37b5b2b760b91b60648201526084016103d3565b60006001600160a01b03821661063c5760405162461bcd60e51b815260206004820152602a60248201527f4552433732313a2062616c616e636520717565727920666f7220746865207a65604482015269726f206164647265737360b01b60648201526084016103d3565b506001600160a01b031660009081526003602052604090205490565b6006546001600160a01b031633146106825760405162461bcd60e51b81526004016103d39061126c565b61068c6000610c4b565b565b6006546001600160a01b031633146106b85760405162461bcd60e51b81526004016103d39061126c565b600754600854106107035760405162461bcd60e51b8152602060048201526015602482015274151bdad95b881a5908195e18d95959081b1a5b5a5d605a1b60448201526064016103d3565b61070f81600854610c9d565b610717610ddf565b50565b6060600180546102db906111e0565b6001600160a01b0382163314156107825760405162461bcd60e51b815260206004820152601960248201527f4552433732313a20617070726f766520746f2063616c6c65720000000000000060448201526064016103d3565b3360008181526005602090815260408083206001600160a01b03871680855290835292819020805460ff191686151590811790915590519081529192917f17307eab39ab6107e8899845ad3d59bd9653f200f220920489ca2b5937696c31910160405180910390a35050565b6107f833836109d4565b6108145760405162461bcd60e51b81526004016103d39061121b565b61082084848484610df6565b50505050565b60606009600a838154811061083d5761083d6112a1565b90600052602060002001604051602001610858929190611351565b6040516020818303038152906040529050919050565b60006001600160a01b0382167358807bad0b376efc12f5ad86aac70e78ed67deae141561089d575060016102c6565b6001600160a01b0380841660009081526005602090815260408083209386168352929052205460ff165b9392505050565b6006546001600160a01b031633146108f85760405162461bcd60e51b81526004016103d39061126c565b6001600160a01b03811661095d5760405162461bcd60e51b815260206004820152602660248201527f4f776e61626c653a206e6577206f776e657220697320746865207a65726f206160448201526564647265737360d01b60648201526084016103d3565b61071781610c4b565b600081815260046020526040902080546001600160a01b0319166001600160a01b038416908117909155819061099b8261055a565b6001600160a01b03167f8c5be1e5ebec7d5bd14f71427d1e84f3dd0314c0f7b2291e5b200ac8c7c3b92560405160405180910390a45050565b6000818152600260205260408120546001600160a01b0316610a4d5760405162461bcd60e51b815260206004820152602c60248201527f4552433732313a206f70657261746f7220717565727920666f72206e6f6e657860448201526b34b9ba32b73a103a37b5b2b760a11b60648201526084016103d3565b6000610a588361055a565b9050806001600160a01b0316846001600160a01b03161480610a935750836001600160a01b0316610a888461035e565b6001600160a01b0316145b80610aa35750610aa3818561086e565b949350505050565b826001600160a01b0316610abe8261055a565b6001600160a01b031614610b265760405162461bcd60e51b815260206004820152602960248201527f4552433732313a207472616e73666572206f6620746f6b656e2074686174206960448201526839903737ba1037bbb760b91b60648201526084016103d3565b6001600160a01b038216610b885760405162461bcd60e51b8152602060048201526024808201527f4552433732313a207472616e7366657220746f20746865207a65726f206164646044820152637265737360e01b60648201526084016103d3565b610b93600082610966565b6001600160a01b0383166000908152600360205260408120805460019290610bbc90849061137c565b90915550506001600160a01b0382166000908152600360205260408120805460019290610bea908490611393565b909155505060008181526002602052604080822080546001600160a01b0319166001600160a01b0386811691821790925591518493918716917fddf252ad1be2c89b69c2b068fc378daa952ba7f163c4a11628f55a4df523b3ef91a4505050565b600680546001600160a01b038381166001600160a01b0319831681179093556040519116919082907f8be0079c531659141344cd1fd0a4f28419497f9722a3daafe3b4186f6b6457e090600090a35050565b6001600160a01b038216610cf35760405162461bcd60e51b815260206004820181905260248201527f4552433732313a206d696e7420746f20746865207a65726f206164647265737360448201526064016103d3565b6000818152600260205260409020546001600160a01b031615610d585760405162461bcd60e51b815260206004820152601c60248201527f4552433732313a20746f6b656e20616c7265616479206d696e7465640000000060448201526064016103d3565b6001600160a01b0382166000908152600360205260408120805460019290610d81908490611393565b909155505060008181526002602052604080822080546001600160a01b0319166001600160a01b03861690811790915590518392907fddf252ad1be2c89b69c2b068fc378daa952ba7f163c4a11628f55a4df523b3ef908290a45050565b60088054906000610def836113ab565b9190505550565b610e01848484610aab565b610e0d84848484610e29565b6108205760405162461bcd60e51b81526004016103d3906113c6565b60006001600160a01b0384163b15610f2b57604051630a85bd0160e11b81526001600160a01b0385169063150b7a0290610e6d903390899088908890600401611418565b602060405180830381600087803b158015610e8757600080fd5b505af1925050508015610eb7575060408051601f3d908101601f19168201909252610eb491810190611455565b60015b610f11573d808015610ee5576040519150601f19603f3d011682016040523d82523d6000602084013e610eea565b606091505b508051610f095760405162461bcd60e51b81526004016103d3906113c6565b805181602001fd5b6001600160e01b031916630a85bd0160e11b149050610aa3565b506001949350505050565b6001600160e01b03198116811461071757600080fd5b600060208284031215610f5e57600080fd5b81356108c781610f36565b6000815180845260005b81811015610f8f57602081850181015186830182015201610f73565b81811115610fa1576000602083870101525b50601f01601f19169290920160200192915050565b6020815260006108c76020830184610f69565b600060208284031215610fdb57600080fd5b5035919050565b80356001600160a01b0381168114610ff957600080fd5b919050565b6000806040838503121561101157600080fd5b61101a83610fe2565b946020939093013593505050565b60008060006060848603121561103d57600080fd5b61104684610fe2565b925061105460208501610fe2565b9150604084013590509250925092565b60006020828403121561107657600080fd5b6108c782610fe2565b6000806040838503121561109257600080fd5b61109b83610fe2565b9150602083013580151581146110b057600080fd5b809150509250929050565b634e487b7160e01b600052604160045260246000fd5b600080600080608085870312156110e757600080fd5b6110f085610fe2565b93506110fe60208601610fe2565b925060408501359150606085013567ffffffffffffffff8082111561112257600080fd5b818701915087601f83011261113657600080fd5b813581811115611148576111486110bb565b604051601f8201601f19908116603f01168101908382118183101715611170576111706110bb565b816040528281528a602084870101111561118957600080fd5b82602086016020830137600060208483010152809550505050505092959194509250565b600080604083850312156111c057600080fd5b6111c983610fe2565b91506111d760208401610fe2565b90509250929050565b600181811c908216806111f457607f821691505b6020821081141561121557634e487b7160e01b600052602260045260246000fd5b50919050565b60208082526031908201527f4552433732313a207472616e736665722063616c6c6572206973206e6f74206f6040820152701ddb995c881b9bdc88185c1c1c9bdd9959607a1b606082015260800190565b6020808252818101527f4f776e61626c653a2063616c6c6572206973206e6f7420746865206f776e6572604082015260600190565b634e487b7160e01b600052603260045260246000fd5b8054600090600181811c90808316806112d157607f831692505b60208084108214156112f357634e487b7160e01b600052602260045260246000fd5b818015611307576001811461131857611345565b60ff19861689528489019650611345565b60008881526020902060005b8681101561133d5781548b820152908501908301611324565b505084890196505b50505050505092915050565b6000610aa361136083866112b7565b846112b7565b634e487b7160e01b600052601160045260246000fd5b60008282101561138e5761138e611366565b500390565b600082198211156113a6576113a6611366565b500190565b60006000198214156113bf576113bf611366565b5060010190565b60208082526032908201527f4552433732313a207472616e7366657220746f206e6f6e20455243373231526560408201527131b2b4bb32b91034b6b83632b6b2b73a32b960711b606082015260800190565b6001600160a01b038581168252841660208201526040810183905260806060820181905260009061144b90830184610f69565b9695505050505050565b60006020828403121561146757600080fd5b81516108c781610f3656fea26469706673582212209b3da3352b2b8e357f561fdd7c5cdf163074b39d8472d86df70e830145a0234664736f6c6343000809003368747470733a2f2f676174657761792e70696e6174612e636c6f75642f697066732f516d535231625a776b58694b4c61446f786e66343275315a376b565733357375747033656b504162505276415a46516d58754a6e52536f646a564744786d7258564d3641314435585a3371315458777957655a3641736f784832366b",
  "devdoc": {
    "kind": "dev",
    "methods": {
      "approve(address,uint256)": {
        "details": "See {IERC721-approve}."
      },
      "balanceOf(address)": {
        "details": "See {IERC721-balanceOf}."
      },
      "getApproved(uint256)": {
        "details": "See {IERC721-getApproved}."
      },
      "name()": {
        "details": "See {IERC721Metadata-name}."
      },
      "owner()": {
        "details": "Returns the address of the current owner."
      },
      "ownerOf(uint256)": {
        "details": "See {IERC721-ownerOf}."
      },
      "renounceOwnership()": {
        "details": "Leaves the contract without owner. It will not be possible to call `onlyOwner` functions anymore. Can only be called by the current owner. NOTE: Renouncing ownership will leave the contract without an owner, thereby removing any functionality that is only available to the owner."
      },
      "safeTransferFrom(address,address,uint256)": {
        "details": "See {IERC721-safeTransferFrom}."
      },
      "safeTransferFrom(address,address,uint256,bytes)": {
        "details": "See {IERC721-safeTransferFrom}."
      },
      "setApprovalForAll(address,bool)": {
        "details": "See {IERC721-setApprovalForAll}."
      },
      "supportsInterface(bytes4)": {
        "details": "See {IERC165-supportsInterface}."
      },
      "symbol()": {
        "details": "See {IERC721Metadata-symbol}."
      },
      "tokenURI(uint256)": {
        "details": "See {IERC721Metadata-tokenURI}."
      },
      "transferFrom(address,address,uint256)": {
        "details": "See {IERC721-transferFrom}."
      },
      "transferOwnership(address)": {
        "details": "Transfers ownership of the contract to a new account (`newOwner`). Can only be called by the current owner."
      }
    },
    "version": 1
  },
  "userdoc": {
    "kind": "user",
    "methods": {
      "isApprovedForAll(address,address)": {
        "notice": "Override isApprovedForAll to auto-approve OS's proxy contract"
      }
    },
    "version": 1
  },
  "storageLayout": {
    "storage": [
      {
        "astId": 129,
        "contract": "contracts/nft/UltimateWeapon.sol:UltimateWeapon",
        "label": "_name",
        "offset": 0,
        "slot": "0",
        "type": "t_string_storage"
      },
      {
        "astId": 131,
        "contract": "contracts/nft/UltimateWeapon.sol:UltimateWeapon",
        "label": "_symbol",
        "offset": 0,
        "slot": "1",
        "type": "t_string_storage"
      },
      {
        "astId": 135,
        "contract": "contracts/nft/UltimateWeapon.sol:UltimateWeapon",
        "label": "_owners",
        "offset": 0,
        "slot": "2",
        "type": "t_mapping(t_uint256,t_address)"
      },
      {
        "astId": 139,
        "contract": "contracts/nft/UltimateWeapon.sol:UltimateWeapon",
        "label": "_balances",
        "offset": 0,
        "slot": "3",
        "type": "t_mapping(t_address,t_uint256)"
      },
      {
        "astId": 143,
        "contract": "contracts/nft/UltimateWeapon.sol:UltimateWeapon",
        "label": "_tokenApprovals",
        "offset": 0,
        "slot": "4",
        "type": "t_mapping(t_uint256,t_address)"
      },
      {
        "astId": 149,
        "contract": "contracts/nft/UltimateWeapon.sol:UltimateWeapon",
        "label": "_operatorApprovals",
        "offset": 0,
        "slot": "5",
        "type": "t_mapping(t_address,t_mapping(t_address,t_bool))"
      },
      {
        "astId": 7,
        "contract": "contracts/nft/UltimateWeapon.sol:UltimateWeapon",
        "label": "_owner",
        "offset": 0,
        "slot": "6",
        "type": "t_address"
      },
      {
        "astId": 1965,
        "contract": "contracts/nft/UltimateWeapon.sol:UltimateWeapon",
        "label": "LIMIT",
        "offset": 0,
        "slot": "7",
        "type": "t_uint256"
      },
      {
        "astId": 1968,
        "contract": "contracts/nft/UltimateWeapon.sol:UltimateWeapon",
        "label": "currentTokenId",
        "offset": 0,
        "slot": "8",
        "type": "t_uint256"
      },
      {
        "astId": 1971,
        "contract": "contracts/nft/UltimateWeapon.sol:UltimateWeapon",
        "label": "baseURI",
        "offset": 0,
        "slot": "9",
        "type": "t_string_storage"
      },
      {
        "astId": 1977,
        "contract": "contracts/nft/UltimateWeapon.sol:UltimateWeapon",
        "label": "urls",
        "offset": 0,
        "slot": "10",
        "type": "t_array(t_string_storage)dyn_storage"
      }
    ],
    "types": {
      "t_address": {
        "encoding": "inplace",
        "label": "address",
        "numberOfBytes": "20"
      },
      "t_array(t_string_storage)dyn_storage": {
        "base": "t_string_storage",
        "encoding": "dynamic_array",
        "label": "string[]",
        "numberOfBytes": "32"
      },
      "t_bool": {
        "encoding": "inplace",
        "label": "bool",
        "numberOfBytes": "1"
      },
      "t_mapping(t_address,t_bool)": {
        "encoding": "mapping",
        "key": "t_address",
        "label": "mapping(address => bool)",
        "numberOfBytes": "32",
        "value": "t_bool"
      },
      "t_mapping(t_address,t_mapping(t_address,t_bool))": {
        "encoding": "mapping",
        "key": "t_address",
        "label": "mapping(address => mapping(address => bool))",
        "numberOfBytes": "32",
        "value": "t_mapping(t_address,t_bool)"
      },
      "t_mapping(t_address,t_uint256)": {
        "encoding": "mapping",
        "key": "t_address",
        "label": "mapping(address => uint256)",
        "numberOfBytes": "32",
        "value": "t_uint256"
      },
      "t_mapping(t_uint256,t_address)": {
        "encoding": "mapping",
        "key": "t_uint256",
        "label": "mapping(uint256 => address)",
        "numberOfBytes": "32",
        "value": "t_address"
      },
      "t_string_storage": {
        "encoding": "bytes",
        "label": "string",
        "numberOfBytes": "32"
      },
      "t_uint256": {
        "encoding": "inplace",
        "label": "uint256",
        "numberOfBytes": "32"
      }
    }
  }
}